:100000000C9434000C9449000C9449000C94490061
:100010000C9449000C9449000C9449000C9449003C
:100020000C9449000C9449000C9449000C9449002C
:100030000C9449000C9449000C9449000C9449001C
:100040000C9449000C9449000C9449000C9449000C
:100050000C9449000C9449000C9449000C944900FC
:100060000C9449000C94490011241FBECFEFD8E036
:10007000DEBFCDBF11E0A0E0B1E0E6E1F1E002C0FB
:1000800005900D92A830B107D9F70E9470000C942A
:1000900089000C9400009093C5008093C40088E10F
:1000A0008093C10086E08093C20008959091C000C3
:1000B00095FFFCCF8093C6000895CF93DF93EC01AA
:1000C0008991811103C0DF91CF9108950E9456005C
:1000D000F7CF8091C00087FFFCCF8091C6000895C4
:1000E00080E284B987E690E00E944B000E9469009C
:1000F0002FEF39E698E1215030409040E1F700C001
:100100000000813399F780E091E00E945D002D9A14
:06011000EDCFF894FFCFD3
:080116005245202D20310A00A2
:00000001FF
