:100000000C9434000C9451000C9451000C94510049
:100010000C9451000C9451000C9451000C9451001C
:100020000C9451000C9451000C9451000C9451000C
:100030000C9451000C9451000C9451000C945100FC
:100040000C9451000C9451000C9451000C945100EC
:100050000C9451000C9451000C9451000C945100DC
:100060000C9451000C94510011241FBECFEFD8E026
:10007000DEBFCDBF11E0A0E0B1E0E0E0F4E002C0FF
:1000800005900D92A434B107D9F721E0A4E4B1E0C2
:1000900001C01D92A734B207E1F70E9465010C94DC
:1000A000FE010C9400009093C5008093C40088E189
:1000B0008093C10086E08093C20008959091C000B3
:1000C00095FFFCCF8093C6000895CF93DF93EC019A
:1000D0008991811103C0DF91CF9108950E945E0044
:1000E000F7CF8091C00087FFFCCF8091C6000895B4
:1000F0008091440190914501892B11F581E090E0B8
:1001000090934501809344018091B000836A80936D
:10011000B00084B5836884BD81E08093B10085BD63
:100120001092B3001092B40017BC239A539A2FEF89
:1001300081EE94E0215080409040E1F700C0000043
:1001400008952C98289827E030E05C98809146012B
:1001500090E0022E02C0959587950A94E2F780FF01
:100160000CC0289A5C9A85E08A95F1F700005C98AB
:100170002150310950F72C9A08952898F3CF809395
:10018000B3002FEF81EE94E0215080409040E1F7E2
:1001900000C0000008958093B4002FEF81EE94E03A
:1001A000215080409040E1F700C00000089587BDD5
:1001B0002FEF81EE94E0215080409040E1F700C0A5
:1001C0000000089584B1816184B98AB180698AB9D7
:1001D000109246010E94A1005F980895CF93DF938B
:1001E000C82FD62F86E091E00E946500C150C33031
:1001F000C8F58C2F90E0FC01ED5FFE4F3081805000
:100200009F4FFC014081D13041F0D230D9F083E1E1
:1002100091E0DF91CF910C94650081E090E0BC010A
:1002200001C0660F3A95EAF720914601262B01C0DE
:10023000880F4A95EAF780958223809346010E94B1
:10024000A100E5CF81E090E0BC0102C0660F771FFE
:100250004A95E2F720914601262B01C0880F3A9576
:10026000EAF7E9CFDF91CF910895CF93C82F86E2C7
:1002700091E00E946500C150C33028F58C2F90E0BA
:10028000FC01ED5FFE4F208141E050E0BA0102C069
:10029000660F771F2A95E2F79B0180509F4FFC0164
:1002A000808101C0440F8A95EAF7242B2095809124
:1002B00046018223809346010E94A10082E391E0DF
:1002C000CF910C946500CF91089587E690E00E944D
:1002D00053000E9478000E94E200CFEF0E9471005C
:1002E0002FEF31EE94E0215030409040E1F700C014
:1002F0000000813381F4C093B3002FEF31EE84E02E
:10030000215030408040E1F700C0000061E081E012
:100310000E94EE00E3CF823381F08333D9F4C0939F
:10032000B4008FEF91EE24E0815090402040E1F73F
:1003300000C0000061E082E0EBCFC093B3009FEF0C
:1003400021EE34E0915020403040E1F700C0000041
:1003500062E0DDCF843361F18533B9F1863309F48E
:1003600041C0803309F0BACF109246010E94A1002B
:100370008FEF91EE24E0815090402040E1F700C0E3
:1003800000001092B3003FEF81EE94E031508040C6
:100390009040E1F700C000001092B3002FEF31EE63
:1003A00084E0215030408040E1F700C0000096CF4B
:1003B000C093B4003FEF81EE94E031508040904014
:1003C000E1F700C0000062E0B6CFC7BD2FEF31EE0D
:1003D00084E0215030408040E1F700C0000061E03F
:1003E00083E096CFC7BD9FEF21EE34E091502040CF
:1003F0003040E1F700C0000062E0F2CFF894FFCF98
:100400000304070201055354415254204D4F544FE9
:10041000520A005354415254204D4F544F52202DF4
:1004200020454E440A0053544F50204D4F544F52D4
:100430000A0053544F50204D4F544F52202D204509
:040440004E440A001C
:00000001FF
