:100000000C9434000C9451000C9451000C94510049
:100010000C9451000C9451000C9451000C9451001C
:100020000C9451000C9451000C9451000C9451000C
:100030000C9451000C9451000C9451000C945100FC
:100040000C9451000C9451000C9451000C945100EC
:100050000C9451000C9451000C9451000C945100DC
:100060000C9451000C94510011241FBECFEFD8E026
:10007000DEBFCDBF11E0A0E0B1E0E0E9F3E002C0F7
:1000800005900D92AE33B107D9F721E0AEE3B1E0B0
:1000900001C01D92A134B207E1F70E944B010C94FC
:1000A000C6010C9400009093C5008093C40088E1C1
:1000B0008093C10086E08093C20008959091C000B3
:1000C00095FFFCCF8093C6000895CF93DF93EC019A
:1000D0008991811103C0DF91CF9108950E945E0044
:1000E000F7CF8091C00087FFFCCF8091C6000895B4
:1000F00080913E0190913F01892BE9F481E090E0ED
:1001000090933F0180933E018091B000836A809379
:10011000B00081E08093B1001092B3001092B4005F
:10012000239A539A2FEF81EE94E021508040904023
:10013000E1F700C0000008952C98289827E030E0EF
:100140005C988091400190E0022E02C095958795C1
:100150000A94E2F780FF0CC0289A5C9A85E08A95A1
:10016000F1F700005C982150310950F72C9A08955E
:100170002898F3CF8093B3002FEF81EE94E02150C5
:1001800080409040E1F700C0000008958093B400E3
:100190002FEF81EE94E0215080409040E1F700C0C5
:1001A0000000089584B1816184B98AB180698AB9F7
:1001B000109240010E949C005F980895CF93DF93B6
:1001C000D82FC62F80E091E00E946500D13039F031
:1001D00044E031E0D23029F0DF91CF91089543E03F
:1001E00032E0C13041F0C230D9F08DE091E0DF91D2
:1001F000CF910C94650081E090E0BC0101C0660FD6
:100200003A95EAF720914001262B01C0880F4A95C4
:10021000EAF780958223809340010E949C00E5CFFD
:1002200081E090E0BC0102C0660F771F4A95E2F7BB
:1002300020914001262B01C0880F3A95EAF7E9CFBB
:10024000CF93C82F80E291E00E946500C13031F069
:1002500044E081E0C23021F0CF91089543E082E094
:1002600021E030E0B90102C0660F771F8A95E2F7FE
:10027000CB0101C0220F4A95EAF7822B809590911D
:1002800040018923809340010E949C008CE291E010
:10029000CF910C94650087E690E00E9453000E9485
:1002A00078000E94D200CFEF0E9471002FEF31EE54
:1002B00094E0215030409040E1F700C000008133CD
:1002C00081F4C093B3002FEF31EE84E02150304031
:1002D0008040E1F700C0000061E081E00E94DE00A4
:1002E000E3CF823381F08333D9F4C093B4008FEF2E
:1002F00091EE24E0815090402040E1F700C00000E2
:1003000061E082E0EBCFC093B3009FEF21EE34E0D9
:10031000915020403040E1F700C0000062E0DDCFA6
:10032000843339F1803309F0BFCF109240010E942D
:100330009C002FEF31EE84E0215030408040E1F707
:1003400000C000001092B3009FEF21EE34E0915006
:1003500020403040E1F700C000001092B3008FEF62
:1003600091EE24E0815090402040E1F700C0000071
:100370009BCFC093B4003FEF81EE94E031508040BA
:100380009040E1F700C0000062E0BBCFF894FFCFDF
:100390005354415254204D4F544F520A005354412C
:1003A0005254204D4F544F52202D20454E440A00A8
:1003B00053544F50204D4F544F520A0053544F50F6
:0E03C000204D4F544F52202D20454E440A0030
:00000001FF
