:100000000C9434000C9451000C9451000C94510049
:100010000C9451000C9451000C9451000C9451001C
:100020000C9451000C9451000C9451000C9451000C
:100030000C9451000C9451000C9451000C945100FC
:100040000C9451000C9451000C9451000C945100EC
:100050000C9451000C9451000C9451000C945100DC
:100060000C9451000C94510011241FBECFEFD8E026
:10007000DEBFCDBF12E0A0E0B1E0E6E0F3E002C0F9
:1000800005900D92A232B107D9F722E0A2E2B2E0C8
:1000900001C01D92A532B207E1F70E9434010C9411
:1000A00081010C9400009093C5008093C40088E106
:1000B0008093C10086E08093C20008959091C000B3
:1000C00095FFFCCF8093C6000895CF93DF93EC019A
:1000D0008991811103C0DF91CF9108950E945E0044
:1000E000F7CF8091C00087FFFCCF8091C6000895B4
:1000F0008091220290912302892BE1F481E090E02B
:10010000909323028093220280E091E00E94650098
:100110008091B000836A8093B00081E08093B10049
:100120001092B3001092B400239A539A8CE091E09D
:100130000C94650008958EE191E00E9465002C9872
:10014000289827E030E05C988091240290E0022E0D
:1001500002C0959587950A94E2F780FF12C0289A0D
:100160005C9A85E08A95F1F700005C98215031098E
:1001700050F72C9A89E291E00E94650010922402C7
:1001800008952898EDCFE3EBF0E09081982B9083D1
:10019000E4EBF0E09081892B80838FE99FE0019769
:1001A000F1F700C000008AE391E00C9465008FE451
:1001B00091E00E94650084B1816184B985E691E097
:1001C0000E9465008AB180698AB98BE791E00E943C
:1001D0006500109224020E949B0081E991E00E9438
:1001E00065005F9887EA91E00C946500CF93C82F73
:1001F000109224028BEB91E00E946500C13031F037
:1002000084E041E0C23021F0CF91089583E042E0E4
:1002100021E030E0B90102C0660F771F8A95E2F74E
:10022000CB01809501C0220F4A95EAF78223809383
:1002300024020E949B0088EC91E0CF910C94650011
:10024000CF93C82F8BED91E00E946500109224029D
:10025000C150C23038F40E949B0087EE91E0CF91EC
:100260000C946500CF91089587E690E00E945300BA
:100270000E9478008FE99FE00197F1F700C000002D
:100280000E94D7000E9471009FEF29E638E191504B
:1002900020403040E1F700C000008133C1F48BEB17
:1002A00091E00E94650089EF91E00E9465008FEF68
:1002B0000E94C3008FEF91EE24E0815090402040D7
:1002C000E1F700C0000081E00E94F600DBCF82333E
:1002D000C9F68BED91E00E9465008EE092E00E94ED
:1002E000650080E00E94C3003FEF81EE94E0315052
:1002F00080409040E1F700C0000081E00E942001B2
:06030000C1CFF894FFCF0D
:10030600454E41424C452050574D0A00454E41420C
:100316004C452050574D202D20454E440A0053454C
:1003260054204C415443480A00534554204C4154F0
:100336004348202D20454E440A0053455454494E07
:1003460047205350454544202D20454E440A00453C
:100356004E41424C45204D4F544F52202D20537450
:100366006172740A00436F6E666967757265642010
:10037600504F5254425F4449520A00436F6E6669B9
:10038600677572656420504F5254445F4449520A5F
:10039600004C6174636820536574757020436F6DFB
:1003A600706C6574650A00454E41424C45204D4FC0
:1003B600544F52202D20454E440A00535441525466
:1003C600204D4F544F520A005354415254204D4F22
:1003D600544F52202D20454E440A0053544F50206E
:1003E6004D4F544F520A0053544F50204D4F544FC7
:1003F60052202D20454E440A0053455454494E4739
:10040600205350454544202D203235350A005345AA
:100416005454494E47205350454544202D20300A18
:020426000000D4
:00000001FF
